{
	"cryptoWallet.sol": {
		"CryptoWallet": {
			"abi": [
				{
					"inputs": [],
					"stateMutability": "nonpayable",
					"type": "constructor"
				},
				{
					"inputs": [],
					"name": "accountOwner",
					"outputs": [
						{
							"internalType": "address payable",
							"name": "",
							"type": "address"
						}
					],
					"stateMutability": "view",
					"type": "function"
				},
				{
					"inputs": [
						{
							"internalType": "address",
							"name": "account",
							"type": "address"
						}
					],
					"name": "balanceOf",
					"outputs": [
						{
							"internalType": "uint256",
							"name": "",
							"type": "uint256"
						}
					],
					"stateMutability": "view",
					"type": "function"
				},
				{
					"inputs": [],
					"name": "deposit",
					"outputs": [],
					"stateMutability": "payable",
					"type": "function"
				},
				{
					"inputs": [
						{
							"internalType": "address",
							"name": "to",
							"type": "address"
						},
						{
							"internalType": "uint256",
							"name": "amount",
							"type": "uint256"
						}
					],
					"name": "transfer",
					"outputs": [],
					"stateMutability": "nonpayable",
					"type": "function"
				},
				{
					"inputs": [
						{
							"internalType": "uint256",
							"name": "amount",
							"type": "uint256"
						}
					],
					"name": "withdraw",
					"outputs": [],
					"stateMutability": "nonpayable",
					"type": "function"
				},
				{
					"stateMutability": "payable",
					"type": "receive"
				}
			],
			"devdoc": {
				"kind": "dev",
				"methods": {},
				"version": 1
			},
			"evm": {
				"assembly": "    /* \"cryptoWallet.sol\":57:1218  contract CryptoWallet {... */\n  mstore(0x40, 0x80)\n    /* \"cryptoWallet.sol\":177:242  constructor() {... */\n  callvalue\n  dup1\n  iszero\n  tag_1\n  jumpi\n  0x00\n  dup1\n  revert\ntag_1:\n  pop\n    /* \"cryptoWallet.sol\":224:234  msg.sender */\n  caller\n    /* \"cryptoWallet.sol\":201:213  accountOwner */\n  0x00\n  dup1\n    /* \"cryptoWallet.sol\":201:235  accountOwner = payable(msg.sender) */\n  0x0100\n  exp\n  dup2\n  sload\n  dup2\n  0xffffffffffffffffffffffffffffffffffffffff\n  mul\n  not\n  and\n  swap1\n  dup4\n  0xffffffffffffffffffffffffffffffffffffffff\n  and\n  mul\n  or\n  swap1\n  sstore\n  pop\n    /* \"cryptoWallet.sol\":57:1218  contract CryptoWallet {... */\n  dataSize(sub_0)\n  dup1\n  dataOffset(sub_0)\n  0x00\n  codecopy\n  0x00\n  return\nstop\n\nsub_0: assembly {\n        /* \"cryptoWallet.sol\":57:1218  contract CryptoWallet {... */\n      mstore(0x40, 0x80)\n      jumpi(tag_1, lt(calldatasize, 0x04))\n      shr(0xe0, calldataload(0x00))\n      dup1\n      0x2e1a7d4d\n      eq\n      tag_3\n      jumpi\n      dup1\n      0x674ddb53\n      eq\n      tag_4\n      jumpi\n      dup1\n      0x70a08231\n      eq\n      tag_5\n      jumpi\n      dup1\n      0xa9059cbb\n      eq\n      tag_6\n      jumpi\n      dup1\n      0xd0e30db0\n      eq\n      tag_7\n      jumpi\n      jump(tag_2)\n    tag_1:\n      jumpi(tag_2, calldatasize)\n      stop\n    tag_2:\n      0x00\n      dup1\n      revert\n        /* \"cryptoWallet.sol\":548:780  function withdraw(uint256 amount) external onlyOwner {... */\n    tag_3:\n      callvalue\n      dup1\n      iszero\n      tag_10\n      jumpi\n      0x00\n      dup1\n      revert\n    tag_10:\n      pop\n      tag_11\n      0x04\n      dup1\n      calldatasize\n      sub\n      dup2\n      add\n      swap1\n      tag_12\n      swap2\n      swap1\n      tag_13\n      jump\t// in\n    tag_12:\n      tag_14\n      jump\t// in\n    tag_11:\n      stop\n        /* \"cryptoWallet.sol\":85:120  address payable public accountOwner */\n    tag_4:\n      callvalue\n      dup1\n      iszero\n      tag_15\n      jumpi\n      0x00\n      dup1\n      revert\n    tag_15:\n      pop\n      tag_16\n      tag_17\n      jump\t// in\n    tag_16:\n      mload(0x40)\n      tag_18\n      swap2\n      swap1\n      tag_19\n      jump\t// in\n    tag_18:\n      mload(0x40)\n      dup1\n      swap2\n      sub\n      swap1\n      return\n        /* \"cryptoWallet.sol\":1072:1181  function balanceOf(address account) external view returns (uint256) {... */\n    tag_5:\n      callvalue\n      dup1\n      iszero\n      tag_20\n      jumpi\n      0x00\n      dup1\n      revert\n    tag_20:\n      pop\n      tag_21\n      0x04\n      dup1\n      calldatasize\n      sub\n      dup2\n      add\n      swap1\n      tag_22\n      swap2\n      swap1\n      tag_23\n      jump\t// in\n    tag_22:\n      tag_24\n      jump\t// in\n    tag_21:\n      mload(0x40)\n      tag_25\n      swap2\n      swap1\n      tag_26\n      jump\t// in\n    tag_25:\n      mload(0x40)\n      dup1\n      swap2\n      sub\n      swap1\n      return\n        /* \"cryptoWallet.sol\":786:1066  function transfer(address to, uint256 amount) external {... */\n    tag_6:\n      callvalue\n      dup1\n      iszero\n      tag_27\n      jumpi\n      0x00\n      dup1\n      revert\n    tag_27:\n      pop\n      tag_28\n      0x04\n      dup1\n      calldatasize\n      sub\n      dup2\n      add\n      swap1\n      tag_29\n      swap2\n      swap1\n      tag_30\n      jump\t// in\n    tag_29:\n      tag_31\n      jump\t// in\n    tag_28:\n      stop\n        /* \"cryptoWallet.sol\":383:542  function deposit() external payable {... */\n    tag_7:\n      tag_32\n      tag_33\n      jump\t// in\n    tag_32:\n      stop\n        /* \"cryptoWallet.sol\":548:780  function withdraw(uint256 amount) external onlyOwner {... */\n    tag_14:\n        /* \"cryptoWallet.sol\":301:313  accountOwner */\n      0x00\n      dup1\n      sload\n      swap1\n      0x0100\n      exp\n      swap1\n      div\n      0xffffffffffffffffffffffffffffffffffffffff\n      and\n        /* \"cryptoWallet.sol\":287:313  msg.sender == accountOwner */\n      0xffffffffffffffffffffffffffffffffffffffff\n      and\n        /* \"cryptoWallet.sol\":287:297  msg.sender */\n      caller\n        /* \"cryptoWallet.sol\":287:313  msg.sender == accountOwner */\n      0xffffffffffffffffffffffffffffffffffffffff\n      and\n      eq\n        /* \"cryptoWallet.sol\":279:359  require(msg.sender == accountOwner, \"Only account owner can call this function\") */\n      tag_35\n      jumpi\n      mload(0x40)\n      0x08c379a000000000000000000000000000000000000000000000000000000000\n      dup2\n      mstore\n      0x04\n      add\n      tag_36\n      swap1\n      tag_37\n      jump\t// in\n    tag_36:\n      mload(0x40)\n      dup1\n      swap2\n      sub\n      swap1\n      revert\n    tag_35:\n        /* \"cryptoWallet.sol\":644:650  amount */\n      dup1\n        /* \"cryptoWallet.sol\":619:640  address(this).balance */\n      selfbalance\n        /* \"cryptoWallet.sol\":619:650  address(this).balance >= amount */\n      lt\n      iszero\n        /* \"cryptoWallet.sol\":611:691  require(address(this).balance >= amount, \"Insufficient balance in the contract\") */\n      tag_39\n      jumpi\n      mload(0x40)\n      0x08c379a000000000000000000000000000000000000000000000000000000000\n      dup2\n      mstore\n      0x04\n      add\n      tag_40\n      swap1\n      tag_41\n      jump\t// in\n    tag_40:\n      mload(0x40)\n      dup1\n      swap2\n      sub\n      swap1\n      revert\n    tag_39:\n        /* \"cryptoWallet.sol\":727:733  amount */\n      dup1\n        /* \"cryptoWallet.sol\":701:709  balances */\n      0x01\n        /* \"cryptoWallet.sol\":701:723  balances[accountOwner] */\n      0x00\n        /* \"cryptoWallet.sol\":710:722  accountOwner */\n      dup1\n      0x00\n      swap1\n      sload\n      swap1\n      0x0100\n      exp\n      swap1\n      div\n      0xffffffffffffffffffffffffffffffffffffffff\n      and\n        /* \"cryptoWallet.sol\":701:723  balances[accountOwner] */\n      0xffffffffffffffffffffffffffffffffffffffff\n      and\n      0xffffffffffffffffffffffffffffffffffffffff\n      and\n      dup2\n      mstore\n      0x20\n      add\n      swap1\n      dup2\n      mstore\n      0x20\n      add\n      0x00\n      keccak256\n      0x00\n        /* \"cryptoWallet.sol\":701:733  balances[accountOwner] -= amount */\n      dup3\n      dup3\n      sload\n      tag_42\n      swap2\n      swap1\n      tag_43\n      jump\t// in\n    tag_42:\n      swap3\n      pop\n      pop\n      dup2\n      swap1\n      sstore\n      pop\n        /* \"cryptoWallet.sol\":744:756  accountOwner */\n      0x00\n      dup1\n      sload\n      swap1\n      0x0100\n      exp\n      swap1\n      div\n      0xffffffffffffffffffffffffffffffffffffffff\n      and\n        /* \"cryptoWallet.sol\":744:765  accountOwner.transfer */\n      0xffffffffffffffffffffffffffffffffffffffff\n      and\n        /* \"cryptoWallet.sol\":744:773  accountOwner.transfer(amount) */\n      0x08fc\n        /* \"cryptoWallet.sol\":766:772  amount */\n      dup3\n        /* \"cryptoWallet.sol\":744:773  accountOwner.transfer(amount) */\n      swap1\n      dup2\n      iszero\n      mul\n      swap1\n      mload(0x40)\n      0x00\n      mload(0x40)\n      dup1\n      dup4\n      sub\n      dup2\n      dup6\n      dup9\n      dup9\n      call\n      swap4\n      pop\n      pop\n      pop\n      pop\n      iszero\n      dup1\n      iszero\n      tag_45\n      jumpi\n      returndatasize\n      0x00\n      dup1\n      returndatacopy\n      revert(0x00, returndatasize)\n    tag_45:\n      pop\n        /* \"cryptoWallet.sol\":548:780  function withdraw(uint256 amount) external onlyOwner {... */\n      pop\n      jump\t// out\n        /* \"cryptoWallet.sol\":85:120  address payable public accountOwner */\n    tag_17:\n      0x00\n      dup1\n      sload\n      swap1\n      0x0100\n      exp\n      swap1\n      div\n      0xffffffffffffffffffffffffffffffffffffffff\n      and\n      dup2\n      jump\t// out\n        /* \"cryptoWallet.sol\":1072:1181  function balanceOf(address account) external view returns (uint256) {... */\n    tag_24:\n        /* \"cryptoWallet.sol\":1131:1138  uint256 */\n      0x00\n        /* \"cryptoWallet.sol\":1157:1165  balances */\n      0x01\n        /* \"cryptoWallet.sol\":1157:1174  balances[account] */\n      0x00\n        /* \"cryptoWallet.sol\":1166:1173  account */\n      dup4\n        /* \"cryptoWallet.sol\":1157:1174  balances[account] */\n      0xffffffffffffffffffffffffffffffffffffffff\n      and\n      0xffffffffffffffffffffffffffffffffffffffff\n      and\n      dup2\n      mstore\n      0x20\n      add\n      swap1\n      dup2\n      mstore\n      0x20\n      add\n      0x00\n      keccak256\n      sload\n        /* \"cryptoWallet.sol\":1150:1174  return balances[account] */\n      swap1\n      pop\n        /* \"cryptoWallet.sol\":1072:1181  function balanceOf(address account) external view returns (uint256) {... */\n      swap2\n      swap1\n      pop\n      jump\t// out\n        /* \"cryptoWallet.sol\":786:1066  function transfer(address to, uint256 amount) external {... */\n    tag_31:\n        /* \"cryptoWallet.sol\":873:874  0 */\n      0x00\n        /* \"cryptoWallet.sol\":859:875  to != address(0) */\n      0xffffffffffffffffffffffffffffffffffffffff\n      and\n        /* \"cryptoWallet.sol\":859:861  to */\n      dup3\n        /* \"cryptoWallet.sol\":859:875  to != address(0) */\n      0xffffffffffffffffffffffffffffffffffffffff\n      and\n      eq\n      iszero\n        /* \"cryptoWallet.sol\":851:905  require(to != address(0), \"Invalid recipient address\") */\n      tag_48\n      jumpi\n      mload(0x40)\n      0x08c379a000000000000000000000000000000000000000000000000000000000\n      dup2\n      mstore\n      0x04\n      add\n      tag_49\n      swap1\n      tag_50\n      jump\t// in\n    tag_49:\n      mload(0x40)\n      dup1\n      swap2\n      sub\n      swap1\n      revert\n    tag_48:\n        /* \"cryptoWallet.sol\":947:953  amount */\n      dup1\n        /* \"cryptoWallet.sol\":923:931  balances */\n      0x01\n        /* \"cryptoWallet.sol\":923:943  balances[msg.sender] */\n      0x00\n        /* \"cryptoWallet.sol\":932:942  msg.sender */\n      caller\n        /* \"cryptoWallet.sol\":923:943  balances[msg.sender] */\n      0xffffffffffffffffffffffffffffffffffffffff\n      and\n      0xffffffffffffffffffffffffffffffffffffffff\n      and\n      dup2\n      mstore\n      0x20\n      add\n      swap1\n      dup2\n      mstore\n      0x20\n      add\n      0x00\n      keccak256\n      sload\n        /* \"cryptoWallet.sol\":923:953  balances[msg.sender] >= amount */\n      lt\n      iszero\n        /* \"cryptoWallet.sol\":915:978  require(balances[msg.sender] >= amount, \"Insufficient balance\") */\n      tag_51\n      jumpi\n      mload(0x40)\n      0x08c379a000000000000000000000000000000000000000000000000000000000\n      dup2\n      mstore\n      0x04\n      add\n      tag_52\n      swap1\n      tag_53\n      jump\t// in\n    tag_52:\n      mload(0x40)\n      dup1\n      swap2\n      sub\n      swap1\n      revert\n    tag_51:\n        /* \"cryptoWallet.sol\":1021:1027  amount */\n      dup1\n        /* \"cryptoWallet.sol\":997:1005  balances */\n      0x01\n        /* \"cryptoWallet.sol\":997:1017  balances[msg.sender] */\n      0x00\n        /* \"cryptoWallet.sol\":1006:1016  msg.sender */\n      caller\n        /* \"cryptoWallet.sol\":997:1017  balances[msg.sender] */\n      0xffffffffffffffffffffffffffffffffffffffff\n      and\n      0xffffffffffffffffffffffffffffffffffffffff\n      and\n      dup2\n      mstore\n      0x20\n      add\n      swap1\n      dup2\n      mstore\n      0x20\n      add\n      0x00\n      keccak256\n      0x00\n        /* \"cryptoWallet.sol\":997:1027  balances[msg.sender] -= amount */\n      dup3\n      dup3\n      sload\n      tag_54\n      swap2\n      swap1\n      tag_43\n      jump\t// in\n    tag_54:\n      swap3\n      pop\n      pop\n      dup2\n      swap1\n      sstore\n      pop\n        /* \"cryptoWallet.sol\":1053:1059  amount */\n      dup1\n        /* \"cryptoWallet.sol\":1037:1045  balances */\n      0x01\n        /* \"cryptoWallet.sol\":1037:1049  balances[to] */\n      0x00\n        /* \"cryptoWallet.sol\":1046:1048  to */\n      dup5\n        /* \"cryptoWallet.sol\":1037:1049  balances[to] */\n      0xffffffffffffffffffffffffffffffffffffffff\n      and\n      0xffffffffffffffffffffffffffffffffffffffff\n      and\n      dup2\n      mstore\n      0x20\n      add\n      swap1\n      dup2\n      mstore\n      0x20\n      add\n      0x00\n      keccak256\n      0x00\n        /* \"cryptoWallet.sol\":1037:1059  balances[to] += amount */\n      dup3\n      dup3\n      sload\n      tag_55\n      swap2\n      swap1\n      tag_56\n      jump\t// in\n    tag_55:\n      swap3\n      pop\n      pop\n      dup2\n      swap1\n      sstore\n      pop\n        /* \"cryptoWallet.sol\":786:1066  function transfer(address to, uint256 amount) external {... */\n      pop\n      pop\n      jump\t// out\n        /* \"cryptoWallet.sol\":383:542  function deposit() external payable {... */\n    tag_33:\n        /* \"cryptoWallet.sol\":449:450  0 */\n      0x00\n        /* \"cryptoWallet.sol\":437:446  msg.value */\n      callvalue\n        /* \"cryptoWallet.sol\":437:450  msg.value > 0 */\n      gt\n        /* \"cryptoWallet.sol\":429:492  require(msg.value > 0, \"Deposit amount must be greater than 0\") */\n      tag_58\n      jumpi\n      mload(0x40)\n      0x08c379a000000000000000000000000000000000000000000000000000000000\n      dup2\n      mstore\n      0x04\n      add\n      tag_59\n      swap1\n      tag_60\n      jump\t// in\n    tag_59:\n      mload(0x40)\n      dup1\n      swap2\n      sub\n      swap1\n      revert\n    tag_58:\n        /* \"cryptoWallet.sol\":526:535  msg.value */\n      callvalue\n        /* \"cryptoWallet.sol\":502:510  balances */\n      0x01\n        /* \"cryptoWallet.sol\":502:522  balances[msg.sender] */\n      0x00\n        /* \"cryptoWallet.sol\":511:521  msg.sender */\n      caller\n        /* \"cryptoWallet.sol\":502:522  balances[msg.sender] */\n      0xffffffffffffffffffffffffffffffffffffffff\n      and\n      0xffffffffffffffffffffffffffffffffffffffff\n      and\n      dup2\n      mstore\n      0x20\n      add\n      swap1\n      dup2\n      mstore\n      0x20\n      add\n      0x00\n      keccak256\n      0x00\n        /* \"cryptoWallet.sol\":502:535  balances[msg.sender] += msg.value */\n      dup3\n      dup3\n      sload\n      tag_61\n      swap2\n      swap1\n      tag_56\n      jump\t// in\n    tag_61:\n      swap3\n      pop\n      pop\n      dup2\n      swap1\n      sstore\n      pop\n        /* \"cryptoWallet.sol\":383:542  function deposit() external payable {... */\n      jump\t// out\n        /* \"#utility.yul\":7:146   */\n    tag_63:\n      0x00\n        /* \"#utility.yul\":91:97   */\n      dup2\n        /* \"#utility.yul\":78:98   */\n      calldataload\n        /* \"#utility.yul\":69:98   */\n      swap1\n      pop\n        /* \"#utility.yul\":107:140   */\n      tag_65\n        /* \"#utility.yul\":134:139   */\n      dup2\n        /* \"#utility.yul\":107:140   */\n      tag_66\n      jump\t// in\n    tag_65:\n        /* \"#utility.yul\":59:146   */\n      swap3\n      swap2\n      pop\n      pop\n      jump\t// out\n        /* \"#utility.yul\":152:291   */\n    tag_67:\n      0x00\n        /* \"#utility.yul\":236:242   */\n      dup2\n        /* \"#utility.yul\":223:243   */\n      calldataload\n        /* \"#utility.yul\":214:243   */\n      swap1\n      pop\n        /* \"#utility.yul\":252:285   */\n      tag_69\n        /* \"#utility.yul\":279:284   */\n      dup2\n        /* \"#utility.yul\":252:285   */\n      tag_70\n      jump\t// in\n    tag_69:\n        /* \"#utility.yul\":204:291   */\n      swap3\n      swap2\n      pop\n      pop\n      jump\t// out\n        /* \"#utility.yul\":297:559   */\n    tag_23:\n      0x00\n        /* \"#utility.yul\":405:407   */\n      0x20\n        /* \"#utility.yul\":393:402   */\n      dup3\n        /* \"#utility.yul\":384:391   */\n      dup5\n        /* \"#utility.yul\":380:403   */\n      sub\n        /* \"#utility.yul\":376:408   */\n      slt\n        /* \"#utility.yul\":373:375   */\n      iszero\n      tag_72\n      jumpi\n        /* \"#utility.yul\":421:422   */\n      0x00\n        /* \"#utility.yul\":418:419   */\n      dup1\n        /* \"#utility.yul\":411:423   */\n      revert\n        /* \"#utility.yul\":373:375   */\n    tag_72:\n        /* \"#utility.yul\":464:465   */\n      0x00\n        /* \"#utility.yul\":489:542   */\n      tag_73\n        /* \"#utility.yul\":534:541   */\n      dup5\n        /* \"#utility.yul\":525:531   */\n      dup3\n        /* \"#utility.yul\":514:523   */\n      dup6\n        /* \"#utility.yul\":510:532   */\n      add\n        /* \"#utility.yul\":489:542   */\n      tag_63\n      jump\t// in\n    tag_73:\n        /* \"#utility.yul\":479:542   */\n      swap2\n      pop\n        /* \"#utility.yul\":435:552   */\n      pop\n        /* \"#utility.yul\":363:559   */\n      swap3\n      swap2\n      pop\n      pop\n      jump\t// out\n        /* \"#utility.yul\":565:972   */\n    tag_30:\n      0x00\n      dup1\n        /* \"#utility.yul\":690:692   */\n      0x40\n        /* \"#utility.yul\":678:687   */\n      dup4\n        /* \"#utility.yul\":669:676   */\n      dup6\n        /* \"#utility.yul\":665:688   */\n      sub\n        /* \"#utility.yul\":661:693   */\n      slt\n        /* \"#utility.yul\":658:660   */\n      iszero\n      tag_75\n      jumpi\n        /* \"#utility.yul\":706:707   */\n      0x00\n        /* \"#utility.yul\":703:704   */\n      dup1\n        /* \"#utility.yul\":696:708   */\n      revert\n        /* \"#utility.yul\":658:660   */\n    tag_75:\n        /* \"#utility.yul\":749:750   */\n      0x00\n        /* \"#utility.yul\":774:827   */\n      tag_76\n        /* \"#utility.yul\":819:826   */\n      dup6\n        /* \"#utility.yul\":810:816   */\n      dup3\n        /* \"#utility.yul\":799:808   */\n      dup7\n        /* \"#utility.yul\":795:817   */\n      add\n        /* \"#utility.yul\":774:827   */\n      tag_63\n      jump\t// in\n    tag_76:\n        /* \"#utility.yul\":764:827   */\n      swap3\n      pop\n        /* \"#utility.yul\":720:837   */\n      pop\n        /* \"#utility.yul\":876:878   */\n      0x20\n        /* \"#utility.yul\":902:955   */\n      tag_77\n        /* \"#utility.yul\":947:954   */\n      dup6\n        /* \"#utility.yul\":938:944   */\n      dup3\n        /* \"#utility.yul\":927:936   */\n      dup7\n        /* \"#utility.yul\":923:945   */\n      add\n        /* \"#utility.yul\":902:955   */\n      tag_67\n      jump\t// in\n    tag_77:\n        /* \"#utility.yul\":892:955   */\n      swap2\n      pop\n        /* \"#utility.yul\":847:965   */\n      pop\n        /* \"#utility.yul\":648:972   */\n      swap3\n      pop\n      swap3\n      swap1\n      pop\n      jump\t// out\n        /* \"#utility.yul\":978:1240   */\n    tag_13:\n      0x00\n        /* \"#utility.yul\":1086:1088   */\n      0x20\n        /* \"#utility.yul\":1074:1083   */\n      dup3\n        /* \"#utility.yul\":1065:1072   */\n      dup5\n        /* \"#utility.yul\":1061:1084   */\n      sub\n        /* \"#utility.yul\":1057:1089   */\n      slt\n        /* \"#utility.yul\":1054:1056   */\n      iszero\n      tag_79\n      jumpi\n        /* \"#utility.yul\":1102:1103   */\n      0x00\n        /* \"#utility.yul\":1099:1100   */\n      dup1\n        /* \"#utility.yul\":1092:1104   */\n      revert\n        /* \"#utility.yul\":1054:1056   */\n    tag_79:\n        /* \"#utility.yul\":1145:1146   */\n      0x00\n        /* \"#utility.yul\":1170:1223   */\n      tag_80\n        /* \"#utility.yul\":1215:1222   */\n      dup5\n        /* \"#utility.yul\":1206:1212   */\n      dup3\n        /* \"#utility.yul\":1195:1204   */\n      dup6\n        /* \"#utility.yul\":1191:1213   */\n      add\n        /* \"#utility.yul\":1170:1223   */\n      tag_67\n      jump\t// in\n    tag_80:\n        /* \"#utility.yul\":1160:1223   */\n      swap2\n      pop\n        /* \"#utility.yul\":1116:1233   */\n      pop\n        /* \"#utility.yul\":1044:1240   */\n      swap3\n      swap2\n      pop\n      pop\n      jump\t// out\n        /* \"#utility.yul\":1246:1388   */\n    tag_81:\n        /* \"#utility.yul\":1349:1381   */\n      tag_83\n        /* \"#utility.yul\":1375:1380   */\n      dup2\n        /* \"#utility.yul\":1349:1381   */\n      tag_84\n      jump\t// in\n    tag_83:\n        /* \"#utility.yul\":1344:1347   */\n      dup3\n        /* \"#utility.yul\":1337:1382   */\n      mstore\n        /* \"#utility.yul\":1327:1388   */\n      pop\n      pop\n      jump\t// out\n        /* \"#utility.yul\":1394:1763   */\n    tag_85:\n      0x00\n        /* \"#utility.yul\":1557:1624   */\n      tag_87\n        /* \"#utility.yul\":1621:1623   */\n      0x25\n        /* \"#utility.yul\":1616:1619   */\n      dup4\n        /* \"#utility.yul\":1557:1624   */\n      tag_88\n      jump\t// in\n    tag_87:\n        /* \"#utility.yul\":1550:1624   */\n      swap2\n      pop\n        /* \"#utility.yul\":1654:1688   */\n      0x4465706f73697420616d6f756e74206d75737420626520677265617465722074\n        /* \"#utility.yul\":1650:1651   */\n      0x00\n        /* \"#utility.yul\":1645:1648   */\n      dup4\n        /* \"#utility.yul\":1641:1652   */\n      add\n        /* \"#utility.yul\":1634:1689   */\n      mstore\n        /* \"#utility.yul\":1720:1727   */\n      0x68616e2030000000000000000000000000000000000000000000000000000000\n        /* \"#utility.yul\":1715:1717   */\n      0x20\n        /* \"#utility.yul\":1710:1713   */\n      dup4\n        /* \"#utility.yul\":1706:1718   */\n      add\n        /* \"#utility.yul\":1699:1728   */\n      mstore\n        /* \"#utility.yul\":1754:1756   */\n      0x40\n        /* \"#utility.yul\":1749:1752   */\n      dup3\n        /* \"#utility.yul\":1745:1757   */\n      add\n        /* \"#utility.yul\":1738:1757   */\n      swap1\n      pop\n        /* \"#utility.yul\":1540:1763   */\n      swap2\n      swap1\n      pop\n      jump\t// out\n        /* \"#utility.yul\":1769:2087   */\n    tag_89:\n      0x00\n        /* \"#utility.yul\":1932:1999   */\n      tag_91\n        /* \"#utility.yul\":1996:1998   */\n      0x14\n        /* \"#utility.yul\":1991:1994   */\n      dup4\n        /* \"#utility.yul\":1932:1999   */\n      tag_88\n      jump\t// in\n    tag_91:\n        /* \"#utility.yul\":1925:1999   */\n      swap2\n      pop\n        /* \"#utility.yul\":2029:2051   */\n      0x496e73756666696369656e742062616c616e6365000000000000000000000000\n        /* \"#utility.yul\":2025:2026   */\n      0x00\n        /* \"#utility.yul\":2020:2023   */\n      dup4\n        /* \"#utility.yul\":2016:2027   */\n      add\n        /* \"#utility.yul\":2009:2052   */\n      mstore\n        /* \"#utility.yul\":2078:2080   */\n      0x20\n        /* \"#utility.yul\":2073:2076   */\n      dup3\n        /* \"#utility.yul\":2069:2081   */\n      add\n        /* \"#utility.yul\":2062:2081   */\n      swap1\n      pop\n        /* \"#utility.yul\":1915:2087   */\n      swap2\n      swap1\n      pop\n      jump\t// out\n        /* \"#utility.yul\":2093:2466   */\n    tag_92:\n      0x00\n        /* \"#utility.yul\":2256:2323   */\n      tag_94\n        /* \"#utility.yul\":2320:2322   */\n      0x29\n        /* \"#utility.yul\":2315:2318   */\n      dup4\n        /* \"#utility.yul\":2256:2323   */\n      tag_88\n      jump\t// in\n    tag_94:\n        /* \"#utility.yul\":2249:2323   */\n      swap2\n      pop\n        /* \"#utility.yul\":2353:2387   */\n      0x4f6e6c79206163636f756e74206f776e65722063616e2063616c6c2074686973\n        /* \"#utility.yul\":2349:2350   */\n      0x00\n        /* \"#utility.yul\":2344:2347   */\n      dup4\n        /* \"#utility.yul\":2340:2351   */\n      add\n        /* \"#utility.yul\":2333:2388   */\n      mstore\n        /* \"#utility.yul\":2419:2430   */\n      0x2066756e6374696f6e0000000000000000000000000000000000000000000000\n        /* \"#utility.yul\":2414:2416   */\n      0x20\n        /* \"#utility.yul\":2409:2412   */\n      dup4\n        /* \"#utility.yul\":2405:2417   */\n      add\n        /* \"#utility.yul\":2398:2431   */\n      mstore\n        /* \"#utility.yul\":2457:2459   */\n      0x40\n        /* \"#utility.yul\":2452:2455   */\n      dup3\n        /* \"#utility.yul\":2448:2460   */\n      add\n        /* \"#utility.yul\":2441:2460   */\n      swap1\n      pop\n        /* \"#utility.yul\":2239:2466   */\n      swap2\n      swap1\n      pop\n      jump\t// out\n        /* \"#utility.yul\":2472:2795   */\n    tag_95:\n      0x00\n        /* \"#utility.yul\":2635:2702   */\n      tag_97\n        /* \"#utility.yul\":2699:2701   */\n      0x19\n        /* \"#utility.yul\":2694:2697   */\n      dup4\n        /* \"#utility.yul\":2635:2702   */\n      tag_88\n      jump\t// in\n    tag_97:\n        /* \"#utility.yul\":2628:2702   */\n      swap2\n      pop\n        /* \"#utility.yul\":2732:2759   */\n      0x496e76616c696420726563697069656e74206164647265737300000000000000\n        /* \"#utility.yul\":2728:2729   */\n      0x00\n        /* \"#utility.yul\":2723:2726   */\n      dup4\n        /* \"#utility.yul\":2719:2730   */\n      add\n        /* \"#utility.yul\":2712:2760   */\n      mstore\n        /* \"#utility.yul\":2786:2788   */\n      0x20\n        /* \"#utility.yul\":2781:2784   */\n      dup3\n        /* \"#utility.yul\":2777:2789   */\n      add\n        /* \"#utility.yul\":2770:2789   */\n      swap1\n      pop\n        /* \"#utility.yul\":2618:2795   */\n      swap2\n      swap1\n      pop\n      jump\t// out\n        /* \"#utility.yul\":2801:3169   */\n    tag_98:\n      0x00\n        /* \"#utility.yul\":2964:3031   */\n      tag_100\n        /* \"#utility.yul\":3028:3030   */\n      0x24\n        /* \"#utility.yul\":3023:3026   */\n      dup4\n        /* \"#utility.yul\":2964:3031   */\n      tag_88\n      jump\t// in\n    tag_100:\n        /* \"#utility.yul\":2957:3031   */\n      swap2\n      pop\n        /* \"#utility.yul\":3061:3095   */\n      0x496e73756666696369656e742062616c616e636520696e2074686520636f6e74\n        /* \"#utility.yul\":3057:3058   */\n      0x00\n        /* \"#utility.yul\":3052:3055   */\n      dup4\n        /* \"#utility.yul\":3048:3059   */\n      add\n        /* \"#utility.yul\":3041:3096   */\n      mstore\n        /* \"#utility.yul\":3127:3133   */\n      0x7261637400000000000000000000000000000000000000000000000000000000\n        /* \"#utility.yul\":3122:3124   */\n      0x20\n        /* \"#utility.yul\":3117:3120   */\n      dup4\n        /* \"#utility.yul\":3113:3125   */\n      add\n        /* \"#utility.yul\":3106:3134   */\n      mstore\n        /* \"#utility.yul\":3160:3162   */\n      0x40\n        /* \"#utility.yul\":3155:3158   */\n      dup3\n        /* \"#utility.yul\":3151:3163   */\n      add\n        /* \"#utility.yul\":3144:3163   */\n      swap1\n      pop\n        /* \"#utility.yul\":2947:3169   */\n      swap2\n      swap1\n      pop\n      jump\t// out\n        /* \"#utility.yul\":3175:3293   */\n    tag_101:\n        /* \"#utility.yul\":3262:3286   */\n      tag_103\n        /* \"#utility.yul\":3280:3285   */\n      dup2\n        /* \"#utility.yul\":3262:3286   */\n      tag_104\n      jump\t// in\n    tag_103:\n        /* \"#utility.yul\":3257:3260   */\n      dup3\n        /* \"#utility.yul\":3250:3287   */\n      mstore\n        /* \"#utility.yul\":3240:3293   */\n      pop\n      pop\n      jump\t// out\n        /* \"#utility.yul\":3299:3553   */\n    tag_19:\n      0x00\n        /* \"#utility.yul\":3446:3448   */\n      0x20\n        /* \"#utility.yul\":3435:3444   */\n      dup3\n        /* \"#utility.yul\":3431:3449   */\n      add\n        /* \"#utility.yul\":3423:3449   */\n      swap1\n      pop\n        /* \"#utility.yul\":3459:3546   */\n      tag_106\n        /* \"#utility.yul\":3543:3544   */\n      0x00\n        /* \"#utility.yul\":3532:3541   */\n      dup4\n        /* \"#utility.yul\":3528:3545   */\n      add\n        /* \"#utility.yul\":3519:3525   */\n      dup5\n        /* \"#utility.yul\":3459:3546   */\n      tag_81\n      jump\t// in\n    tag_106:\n        /* \"#utility.yul\":3413:3553   */\n      swap3\n      swap2\n      pop\n      pop\n      jump\t// out\n        /* \"#utility.yul\":3559:3978   */\n    tag_60:\n      0x00\n        /* \"#utility.yul\":3763:3765   */\n      0x20\n        /* \"#utility.yul\":3752:3761   */\n      dup3\n        /* \"#utility.yul\":3748:3766   */\n      add\n        /* \"#utility.yul\":3740:3766   */\n      swap1\n      pop\n        /* \"#utility.yul\":3812:3821   */\n      dup2\n        /* \"#utility.yul\":3806:3810   */\n      dup2\n        /* \"#utility.yul\":3802:3822   */\n      sub\n        /* \"#utility.yul\":3798:3799   */\n      0x00\n        /* \"#utility.yul\":3787:3796   */\n      dup4\n        /* \"#utility.yul\":3783:3800   */\n      add\n        /* \"#utility.yul\":3776:3823   */\n      mstore\n        /* \"#utility.yul\":3840:3971   */\n      tag_108\n        /* \"#utility.yul\":3966:3970   */\n      dup2\n        /* \"#utility.yul\":3840:3971   */\n      tag_85\n      jump\t// in\n    tag_108:\n        /* \"#utility.yul\":3832:3971   */\n      swap1\n      pop\n        /* \"#utility.yul\":3730:3978   */\n      swap2\n      swap1\n      pop\n      jump\t// out\n        /* \"#utility.yul\":3984:4403   */\n    tag_53:\n      0x00\n        /* \"#utility.yul\":4188:4190   */\n      0x20\n        /* \"#utility.yul\":4177:4186   */\n      dup3\n        /* \"#utility.yul\":4173:4191   */\n      add\n        /* \"#utility.yul\":4165:4191   */\n      swap1\n      pop\n        /* \"#utility.yul\":4237:4246   */\n      dup2\n        /* \"#utility.yul\":4231:4235   */\n      dup2\n        /* \"#utility.yul\":4227:4247   */\n      sub\n        /* \"#utility.yul\":4223:4224   */\n      0x00\n        /* \"#utility.yul\":4212:4221   */\n      dup4\n        /* \"#utility.yul\":4208:4225   */\n      add\n        /* \"#utility.yul\":4201:4248   */\n      mstore\n        /* \"#utility.yul\":4265:4396   */\n      tag_110\n        /* \"#utility.yul\":4391:4395   */\n      dup2\n        /* \"#utility.yul\":4265:4396   */\n      tag_89\n      jump\t// in\n    tag_110:\n        /* \"#utility.yul\":4257:4396   */\n      swap1\n      pop\n        /* \"#utility.yul\":4155:4403   */\n      swap2\n      swap1\n      pop\n      jump\t// out\n        /* \"#utility.yul\":4409:4828   */\n    tag_37:\n      0x00\n        /* \"#utility.yul\":4613:4615   */\n      0x20\n        /* \"#utility.yul\":4602:4611   */\n      dup3\n        /* \"#utility.yul\":4598:4616   */\n      add\n        /* \"#utility.yul\":4590:4616   */\n      swap1\n      pop\n        /* \"#utility.yul\":4662:4671   */\n      dup2\n        /* \"#utility.yul\":4656:4660   */\n      dup2\n        /* \"#utility.yul\":4652:4672   */\n      sub\n        /* \"#utility.yul\":4648:4649   */\n      0x00\n        /* \"#utility.yul\":4637:4646   */\n      dup4\n        /* \"#utility.yul\":4633:4650   */\n      add\n        /* \"#utility.yul\":4626:4673   */\n      mstore\n        /* \"#utility.yul\":4690:4821   */\n      tag_112\n        /* \"#utility.yul\":4816:4820   */\n      dup2\n        /* \"#utility.yul\":4690:4821   */\n      tag_92\n      jump\t// in\n    tag_112:\n        /* \"#utility.yul\":4682:4821   */\n      swap1\n      pop\n        /* \"#utility.yul\":4580:4828   */\n      swap2\n      swap1\n      pop\n      jump\t// out\n        /* \"#utility.yul\":4834:5253   */\n    tag_50:\n      0x00\n        /* \"#utility.yul\":5038:5040   */\n      0x20\n        /* \"#utility.yul\":5027:5036   */\n      dup3\n        /* \"#utility.yul\":5023:5041   */\n      add\n        /* \"#utility.yul\":5015:5041   */\n      swap1\n      pop\n        /* \"#utility.yul\":5087:5096   */\n      dup2\n        /* \"#utility.yul\":5081:5085   */\n      dup2\n        /* \"#utility.yul\":5077:5097   */\n      sub\n        /* \"#utility.yul\":5073:5074   */\n      0x00\n        /* \"#utility.yul\":5062:5071   */\n      dup4\n        /* \"#utility.yul\":5058:5075   */\n      add\n        /* \"#utility.yul\":5051:5098   */\n      mstore\n        /* \"#utility.yul\":5115:5246   */\n      tag_114\n        /* \"#utility.yul\":5241:5245   */\n      dup2\n        /* \"#utility.yul\":5115:5246   */\n      tag_95\n      jump\t// in\n    tag_114:\n        /* \"#utility.yul\":5107:5246   */\n      swap1\n      pop\n        /* \"#utility.yul\":5005:5253   */\n      swap2\n      swap1\n      pop\n      jump\t// out\n        /* \"#utility.yul\":5259:5678   */\n    tag_41:\n      0x00\n        /* \"#utility.yul\":5463:5465   */\n      0x20\n        /* \"#utility.yul\":5452:5461   */\n      dup3\n        /* \"#utility.yul\":5448:5466   */\n      add\n        /* \"#utility.yul\":5440:5466   */\n      swap1\n      pop\n        /* \"#utility.yul\":5512:5521   */\n      dup2\n        /* \"#utility.yul\":5506:5510   */\n      dup2\n        /* \"#utility.yul\":5502:5522   */\n      sub\n        /* \"#utility.yul\":5498:5499   */\n      0x00\n        /* \"#utility.yul\":5487:5496   */\n      dup4\n        /* \"#utility.yul\":5483:5500   */\n      add\n        /* \"#utility.yul\":5476:5523   */\n      mstore\n        /* \"#utility.yul\":5540:5671   */\n      tag_116\n        /* \"#utility.yul\":5666:5670   */\n      dup2\n        /* \"#utility.yul\":5540:5671   */\n      tag_98\n      jump\t// in\n    tag_116:\n        /* \"#utility.yul\":5532:5671   */\n      swap1\n      pop\n        /* \"#utility.yul\":5430:5678   */\n      swap2\n      swap1\n      pop\n      jump\t// out\n        /* \"#utility.yul\":5684:5906   */\n    tag_26:\n      0x00\n        /* \"#utility.yul\":5815:5817   */\n      0x20\n        /* \"#utility.yul\":5804:5813   */\n      dup3\n        /* \"#utility.yul\":5800:5818   */\n      add\n        /* \"#utility.yul\":5792:5818   */\n      swap1\n      pop\n        /* \"#utility.yul\":5828:5899   */\n      tag_118\n        /* \"#utility.yul\":5896:5897   */\n      0x00\n        /* \"#utility.yul\":5885:5894   */\n      dup4\n        /* \"#utility.yul\":5881:5898   */\n      add\n        /* \"#utility.yul\":5872:5878   */\n      dup5\n        /* \"#utility.yul\":5828:5899   */\n      tag_101\n      jump\t// in\n    tag_118:\n        /* \"#utility.yul\":5782:5906   */\n      swap3\n      swap2\n      pop\n      pop\n      jump\t// out\n        /* \"#utility.yul\":5912:6081   */\n    tag_88:\n      0x00\n        /* \"#utility.yul\":6030:6036   */\n      dup3\n        /* \"#utility.yul\":6025:6028   */\n      dup3\n        /* \"#utility.yul\":6018:6037   */\n      mstore\n        /* \"#utility.yul\":6070:6074   */\n      0x20\n        /* \"#utility.yul\":6065:6068   */\n      dup3\n        /* \"#utility.yul\":6061:6075   */\n      add\n        /* \"#utility.yul\":6046:6075   */\n      swap1\n      pop\n        /* \"#utility.yul\":6008:6081   */\n      swap3\n      swap2\n      pop\n      pop\n      jump\t// out\n        /* \"#utility.yul\":6087:6392   */\n    tag_56:\n      0x00\n        /* \"#utility.yul\":6146:6166   */\n      tag_121\n        /* \"#utility.yul\":6164:6165   */\n      dup3\n        /* \"#utility.yul\":6146:6166   */\n      tag_104\n      jump\t// in\n    tag_121:\n        /* \"#utility.yul\":6141:6166   */\n      swap2\n      pop\n        /* \"#utility.yul\":6180:6200   */\n      tag_122\n        /* \"#utility.yul\":6198:6199   */\n      dup4\n        /* \"#utility.yul\":6180:6200   */\n      tag_104\n      jump\t// in\n    tag_122:\n        /* \"#utility.yul\":6175:6200   */\n      swap3\n      pop\n        /* \"#utility.yul\":6334:6335   */\n      dup3\n        /* \"#utility.yul\":6266:6332   */\n      0xffffffffffffffffffffffffffffffffffffffffffffffffffffffffffffffff\n        /* \"#utility.yul\":6262:6336   */\n      sub\n        /* \"#utility.yul\":6259:6260   */\n      dup3\n        /* \"#utility.yul\":6256:6337   */\n      gt\n        /* \"#utility.yul\":6253:6255   */\n      iszero\n      tag_123\n      jumpi\n        /* \"#utility.yul\":6340:6358   */\n      tag_124\n      tag_125\n      jump\t// in\n    tag_124:\n        /* \"#utility.yul\":6253:6255   */\n    tag_123:\n        /* \"#utility.yul\":6384:6385   */\n      dup3\n        /* \"#utility.yul\":6381:6382   */\n      dup3\n        /* \"#utility.yul\":6377:6386   */\n      add\n        /* \"#utility.yul\":6370:6386   */\n      swap1\n      pop\n        /* \"#utility.yul\":6131:6392   */\n      swap3\n      swap2\n      pop\n      pop\n      jump\t// out\n        /* \"#utility.yul\":6398:6589   */\n    tag_43:\n      0x00\n        /* \"#utility.yul\":6458:6478   */\n      tag_127\n        /* \"#utility.yul\":6476:6477   */\n      dup3\n        /* \"#utility.yul\":6458:6478   */\n      tag_104\n      jump\t// in\n    tag_127:\n        /* \"#utility.yul\":6453:6478   */\n      swap2\n      pop\n        /* \"#utility.yul\":6492:6512   */\n      tag_128\n        /* \"#utility.yul\":6510:6511   */\n      dup4\n        /* \"#utility.yul\":6492:6512   */\n      tag_104\n      jump\t// in\n    tag_128:\n        /* \"#utility.yul\":6487:6512   */\n      swap3\n      pop\n        /* \"#utility.yul\":6531:6532   */\n      dup3\n        /* \"#utility.yul\":6528:6529   */\n      dup3\n        /* \"#utility.yul\":6525:6533   */\n      lt\n        /* \"#utility.yul\":6522:6524   */\n      iszero\n      tag_129\n      jumpi\n        /* \"#utility.yul\":6536:6554   */\n      tag_130\n      tag_125\n      jump\t// in\n    tag_130:\n        /* \"#utility.yul\":6522:6524   */\n    tag_129:\n        /* \"#utility.yul\":6581:6582   */\n      dup3\n        /* \"#utility.yul\":6578:6579   */\n      dup3\n        /* \"#utility.yul\":6574:6583   */\n      sub\n        /* \"#utility.yul\":6566:6583   */\n      swap1\n      pop\n        /* \"#utility.yul\":6443:6589   */\n      swap3\n      swap2\n      pop\n      pop\n      jump\t// out\n        /* \"#utility.yul\":6595:6691   */\n    tag_131:\n      0x00\n        /* \"#utility.yul\":6661:6685   */\n      tag_133\n        /* \"#utility.yul\":6679:6684   */\n      dup3\n        /* \"#utility.yul\":6661:6685   */\n      tag_134\n      jump\t// in\n    tag_133:\n        /* \"#utility.yul\":6650:6685   */\n      swap1\n      pop\n        /* \"#utility.yul\":6640:6691   */\n      swap2\n      swap1\n      pop\n      jump\t// out\n        /* \"#utility.yul\":6697:6801   */\n    tag_84:\n      0x00\n        /* \"#utility.yul\":6771:6795   */\n      tag_136\n        /* \"#utility.yul\":6789:6794   */\n      dup3\n        /* \"#utility.yul\":6771:6795   */\n      tag_134\n      jump\t// in\n    tag_136:\n        /* \"#utility.yul\":6760:6795   */\n      swap1\n      pop\n        /* \"#utility.yul\":6750:6801   */\n      swap2\n      swap1\n      pop\n      jump\t// out\n        /* \"#utility.yul\":6807:6933   */\n    tag_134:\n      0x00\n        /* \"#utility.yul\":6884:6926   */\n      0xffffffffffffffffffffffffffffffffffffffff\n        /* \"#utility.yul\":6877:6882   */\n      dup3\n        /* \"#utility.yul\":6873:6927   */\n      and\n        /* \"#utility.yul\":6862:6927   */\n      swap1\n      pop\n        /* \"#utility.yul\":6852:6933   */\n      swap2\n      swap1\n      pop\n      jump\t// out\n        /* \"#utility.yul\":6939:7016   */\n    tag_104:\n      0x00\n        /* \"#utility.yul\":7005:7010   */\n      dup2\n        /* \"#utility.yul\":6994:7010   */\n      swap1\n      pop\n        /* \"#utility.yul\":6984:7016   */\n      swap2\n      swap1\n      pop\n      jump\t// out\n        /* \"#utility.yul\":7022:7202   */\n    tag_125:\n        /* \"#utility.yul\":7070:7147   */\n      0x4e487b7100000000000000000000000000000000000000000000000000000000\n        /* \"#utility.yul\":7067:7068   */\n      0x00\n        /* \"#utility.yul\":7060:7148   */\n      mstore\n        /* \"#utility.yul\":7167:7171   */\n      0x11\n        /* \"#utility.yul\":7164:7165   */\n      0x04\n        /* \"#utility.yul\":7157:7172   */\n      mstore\n        /* \"#utility.yul\":7191:7195   */\n      0x24\n        /* \"#utility.yul\":7188:7189   */\n      0x00\n        /* \"#utility.yul\":7181:7196   */\n      revert\n        /* \"#utility.yul\":7208:7330   */\n    tag_66:\n        /* \"#utility.yul\":7281:7305   */\n      tag_141\n        /* \"#utility.yul\":7299:7304   */\n      dup2\n        /* \"#utility.yul\":7281:7305   */\n      tag_131\n      jump\t// in\n    tag_141:\n        /* \"#utility.yul\":7274:7279   */\n      dup2\n        /* \"#utility.yul\":7271:7306   */\n      eq\n        /* \"#utility.yul\":7261:7263   */\n      tag_142\n      jumpi\n        /* \"#utility.yul\":7320:7321   */\n      0x00\n        /* \"#utility.yul\":7317:7318   */\n      dup1\n        /* \"#utility.yul\":7310:7322   */\n      revert\n        /* \"#utility.yul\":7261:7263   */\n    tag_142:\n        /* \"#utility.yul\":7251:7330   */\n      pop\n      jump\t// out\n        /* \"#utility.yul\":7336:7458   */\n    tag_70:\n        /* \"#utility.yul\":7409:7433   */\n      tag_144\n        /* \"#utility.yul\":7427:7432   */\n      dup2\n        /* \"#utility.yul\":7409:7433   */\n      tag_104\n      jump\t// in\n    tag_144:\n        /* \"#utility.yul\":7402:7407   */\n      dup2\n        /* \"#utility.yul\":7399:7434   */\n      eq\n        /* \"#utility.yul\":7389:7391   */\n      tag_145\n      jumpi\n        /* \"#utility.yul\":7448:7449   */\n      0x00\n        /* \"#utility.yul\":7445:7446   */\n      dup1\n        /* \"#utility.yul\":7438:7450   */\n      revert\n        /* \"#utility.yul\":7389:7391   */\n    tag_145:\n        /* \"#utility.yul\":7379:7458   */\n      pop\n      jump\t// out\n\n    auxdata: 0xa26469706673582212208ae388e13384169f82b72cd65b3d55aaa1116d1a8b9dda1b2fc1f4d8f64df46964736f6c63430008000033\n}\n",
				"bytecode": {
					"linkReferences": {},
					"object": "608060405234801561001057600080fd5b50336000806101000a81548173ffffffffffffffffffffffffffffffffffffffff021916908373ffffffffffffffffffffffffffffffffffffffff160217905550610a54806100606000396000f3fe60806040526004361061004e5760003560e01c80632e1a7d4d1461005a578063674ddb531461008357806370a08231146100ae578063a9059cbb146100eb578063d0e30db01461011457610055565b3661005557005b600080fd5b34801561006657600080fd5b50610081600480360381019061007c9190610609565b61011e565b005b34801561008f57600080fd5b506100986102d0565b6040516100a59190610802565b60405180910390f35b3480156100ba57600080fd5b506100d560048036038101906100d091906105a4565b6102f4565b6040516100e291906108bd565b60405180910390f35b3480156100f757600080fd5b50610112600480360381019061010d91906105cd565b61033d565b005b61011c6104df565b005b60008054906101000a900473ffffffffffffffffffffffffffffffffffffffff1673ffffffffffffffffffffffffffffffffffffffff163373ffffffffffffffffffffffffffffffffffffffff16146101ac576040517f08c379a00000000000000000000000000000000000000000000000000000000081526004016101a39061085d565b60405180910390fd5b804710156101ef576040517f08c379a00000000000000000000000000000000000000000000000000000000081526004016101e69061089d565b60405180910390fd5b80600160008060009054906101000a900473ffffffffffffffffffffffffffffffffffffffff1673ffffffffffffffffffffffffffffffffffffffff1673ffffffffffffffffffffffffffffffffffffffff168152602001908152602001600020600082825461025f919061093f565b9250508190555060008054906101000a900473ffffffffffffffffffffffffffffffffffffffff1673ffffffffffffffffffffffffffffffffffffffff166108fc829081150290604051600060405180830381858888f193505050501580156102cc573d6000803e3d6000fd5b5050565b60008054906101000a900473ffffffffffffffffffffffffffffffffffffffff1681565b6000600160008373ffffffffffffffffffffffffffffffffffffffff1673ffffffffffffffffffffffffffffffffffffffff168152602001908152602001600020549050919050565b600073ffffffffffffffffffffffffffffffffffffffff168273ffffffffffffffffffffffffffffffffffffffff1614156103ad576040517f08c379a00000000000000000000000000000000000000000000000000000000081526004016103a49061087d565b60405180910390fd5b80600160003373ffffffffffffffffffffffffffffffffffffffff1673ffffffffffffffffffffffffffffffffffffffff16815260200190815260200160002054101561042f576040517f08c379a00000000000000000000000000000000000000000000000000000000081526004016104269061083d565b60405180910390fd5b80600160003373ffffffffffffffffffffffffffffffffffffffff1673ffffffffffffffffffffffffffffffffffffffff168152602001908152602001600020600082825461047e919061093f565b9250508190555080600160008473ffffffffffffffffffffffffffffffffffffffff1673ffffffffffffffffffffffffffffffffffffffff16815260200190815260200160002060008282546104d491906108e9565b925050819055505050565b60003411610522576040517f08c379a00000000000000000000000000000000000000000000000000000000081526004016105199061081d565b60405180910390fd5b34600160003373ffffffffffffffffffffffffffffffffffffffff1673ffffffffffffffffffffffffffffffffffffffff168152602001908152602001600020600082825461057191906108e9565b92505081905550565b600081359050610589816109f0565b92915050565b60008135905061059e81610a07565b92915050565b6000602082840312156105b657600080fd5b60006105c48482850161057a565b91505092915050565b600080604083850312156105e057600080fd5b60006105ee8582860161057a565b92505060206105ff8582860161058f565b9150509250929050565b60006020828403121561061b57600080fd5b60006106298482850161058f565b91505092915050565b61063b81610985565b82525050565b600061064e6025836108d8565b91507f4465706f73697420616d6f756e74206d7573742062652067726561746572207460008301527f68616e20300000000000000000000000000000000000000000000000000000006020830152604082019050919050565b60006106b46014836108d8565b91507f496e73756666696369656e742062616c616e63650000000000000000000000006000830152602082019050919050565b60006106f46029836108d8565b91507f4f6e6c79206163636f756e74206f776e65722063616e2063616c6c207468697360008301527f2066756e6374696f6e00000000000000000000000000000000000000000000006020830152604082019050919050565b600061075a6019836108d8565b91507f496e76616c696420726563697069656e742061646472657373000000000000006000830152602082019050919050565b600061079a6024836108d8565b91507f496e73756666696369656e742062616c616e636520696e2074686520636f6e7460008301527f72616374000000000000000000000000000000000000000000000000000000006020830152604082019050919050565b6107fc816109b7565b82525050565b60006020820190506108176000830184610632565b92915050565b6000602082019050818103600083015261083681610641565b9050919050565b60006020820190508181036000830152610856816106a7565b9050919050565b60006020820190508181036000830152610876816106e7565b9050919050565b600060208201905081810360008301526108968161074d565b9050919050565b600060208201905081810360008301526108b68161078d565b9050919050565b60006020820190506108d260008301846107f3565b92915050565b600082825260208201905092915050565b60006108f4826109b7565b91506108ff836109b7565b9250827fffffffffffffffffffffffffffffffffffffffffffffffffffffffffffffffff03821115610934576109336109c1565b5b828201905092915050565b600061094a826109b7565b9150610955836109b7565b925082821015610968576109676109c1565b5b828203905092915050565b600061097e82610997565b9050919050565b600061099082610997565b9050919050565b600073ffffffffffffffffffffffffffffffffffffffff82169050919050565b6000819050919050565b7f4e487b7100000000000000000000000000000000000000000000000000000000600052601160045260246000fd5b6109f981610973565b8114610a0457600080fd5b50565b610a10816109b7565b8114610a1b57600080fd5b5056fea26469706673582212208ae388e13384169f82b72cd65b3d55aaa1116d1a8b9dda1b2fc1f4d8f64df46964736f6c63430008000033",
					"opcodes": "PUSH1 0x80 PUSH1 0x40 MSTORE CALLVALUE DUP1 ISZERO PUSH2 0x10 JUMPI PUSH1 0x0 DUP1 REVERT JUMPDEST POP CALLER PUSH1 0x0 DUP1 PUSH2 0x100 EXP DUP2 SLOAD DUP2 PUSH20 0xFFFFFFFFFFFFFFFFFFFFFFFFFFFFFFFFFFFFFFFF MUL NOT AND SWAP1 DUP4 PUSH20 0xFFFFFFFFFFFFFFFFFFFFFFFFFFFFFFFFFFFFFFFF AND MUL OR SWAP1 SSTORE POP PUSH2 0xA54 DUP1 PUSH2 0x60 PUSH1 0x0 CODECOPY PUSH1 0x0 RETURN INVALID PUSH1 0x80 PUSH1 0x40 MSTORE PUSH1 0x4 CALLDATASIZE LT PUSH2 0x4E JUMPI PUSH1 0x0 CALLDATALOAD PUSH1 0xE0 SHR DUP1 PUSH4 0x2E1A7D4D EQ PUSH2 0x5A JUMPI DUP1 PUSH4 0x674DDB53 EQ PUSH2 0x83 JUMPI DUP1 PUSH4 0x70A08231 EQ PUSH2 0xAE JUMPI DUP1 PUSH4 0xA9059CBB EQ PUSH2 0xEB JUMPI DUP1 PUSH4 0xD0E30DB0 EQ PUSH2 0x114 JUMPI PUSH2 0x55 JUMP JUMPDEST CALLDATASIZE PUSH2 0x55 JUMPI STOP JUMPDEST PUSH1 0x0 DUP1 REVERT JUMPDEST CALLVALUE DUP1 ISZERO PUSH2 0x66 JUMPI PUSH1 0x0 DUP1 REVERT JUMPDEST POP PUSH2 0x81 PUSH1 0x4 DUP1 CALLDATASIZE SUB DUP2 ADD SWAP1 PUSH2 0x7C SWAP2 SWAP1 PUSH2 0x609 JUMP JUMPDEST PUSH2 0x11E JUMP JUMPDEST STOP JUMPDEST CALLVALUE DUP1 ISZERO PUSH2 0x8F JUMPI PUSH1 0x0 DUP1 REVERT JUMPDEST POP PUSH2 0x98 PUSH2 0x2D0 JUMP JUMPDEST PUSH1 0x40 MLOAD PUSH2 0xA5 SWAP2 SWAP1 PUSH2 0x802 JUMP JUMPDEST PUSH1 0x40 MLOAD DUP1 SWAP2 SUB SWAP1 RETURN JUMPDEST CALLVALUE DUP1 ISZERO PUSH2 0xBA JUMPI PUSH1 0x0 DUP1 REVERT JUMPDEST POP PUSH2 0xD5 PUSH1 0x4 DUP1 CALLDATASIZE SUB DUP2 ADD SWAP1 PUSH2 0xD0 SWAP2 SWAP1 PUSH2 0x5A4 JUMP JUMPDEST PUSH2 0x2F4 JUMP JUMPDEST PUSH1 0x40 MLOAD PUSH2 0xE2 SWAP2 SWAP1 PUSH2 0x8BD JUMP JUMPDEST PUSH1 0x40 MLOAD DUP1 SWAP2 SUB SWAP1 RETURN JUMPDEST CALLVALUE DUP1 ISZERO PUSH2 0xF7 JUMPI PUSH1 0x0 DUP1 REVERT JUMPDEST POP PUSH2 0x112 PUSH1 0x4 DUP1 CALLDATASIZE SUB DUP2 ADD SWAP1 PUSH2 0x10D SWAP2 SWAP1 PUSH2 0x5CD JUMP JUMPDEST PUSH2 0x33D JUMP JUMPDEST STOP JUMPDEST PUSH2 0x11C PUSH2 0x4DF JUMP JUMPDEST STOP JUMPDEST PUSH1 0x0 DUP1 SLOAD SWAP1 PUSH2 0x100 EXP SWAP1 DIV PUSH20 0xFFFFFFFFFFFFFFFFFFFFFFFFFFFFFFFFFFFFFFFF AND PUSH20 0xFFFFFFFFFFFFFFFFFFFFFFFFFFFFFFFFFFFFFFFF AND CALLER PUSH20 0xFFFFFFFFFFFFFFFFFFFFFFFFFFFFFFFFFFFFFFFF AND EQ PUSH2 0x1AC JUMPI PUSH1 0x40 MLOAD PUSH32 0x8C379A000000000000000000000000000000000000000000000000000000000 DUP2 MSTORE PUSH1 0x4 ADD PUSH2 0x1A3 SWAP1 PUSH2 0x85D JUMP JUMPDEST PUSH1 0x40 MLOAD DUP1 SWAP2 SUB SWAP1 REVERT JUMPDEST DUP1 SELFBALANCE LT ISZERO PUSH2 0x1EF JUMPI PUSH1 0x40 MLOAD PUSH32 0x8C379A000000000000000000000000000000000000000000000000000000000 DUP2 MSTORE PUSH1 0x4 ADD PUSH2 0x1E6 SWAP1 PUSH2 0x89D JUMP JUMPDEST PUSH1 0x40 MLOAD DUP1 SWAP2 SUB SWAP1 REVERT JUMPDEST DUP1 PUSH1 0x1 PUSH1 0x0 DUP1 PUSH1 0x0 SWAP1 SLOAD SWAP1 PUSH2 0x100 EXP SWAP1 DIV PUSH20 0xFFFFFFFFFFFFFFFFFFFFFFFFFFFFFFFFFFFFFFFF AND PUSH20 0xFFFFFFFFFFFFFFFFFFFFFFFFFFFFFFFFFFFFFFFF AND PUSH20 0xFFFFFFFFFFFFFFFFFFFFFFFFFFFFFFFFFFFFFFFF AND DUP2 MSTORE PUSH1 0x20 ADD SWAP1 DUP2 MSTORE PUSH1 0x20 ADD PUSH1 0x0 KECCAK256 PUSH1 0x0 DUP3 DUP3 SLOAD PUSH2 0x25F SWAP2 SWAP1 PUSH2 0x93F JUMP JUMPDEST SWAP3 POP POP DUP2 SWAP1 SSTORE POP PUSH1 0x0 DUP1 SLOAD SWAP1 PUSH2 0x100 EXP SWAP1 DIV PUSH20 0xFFFFFFFFFFFFFFFFFFFFFFFFFFFFFFFFFFFFFFFF AND PUSH20 0xFFFFFFFFFFFFFFFFFFFFFFFFFFFFFFFFFFFFFFFF AND PUSH2 0x8FC DUP3 SWAP1 DUP2 ISZERO MUL SWAP1 PUSH1 0x40 MLOAD PUSH1 0x0 PUSH1 0x40 MLOAD DUP1 DUP4 SUB DUP2 DUP6 DUP9 DUP9 CALL SWAP4 POP POP POP POP ISZERO DUP1 ISZERO PUSH2 0x2CC JUMPI RETURNDATASIZE PUSH1 0x0 DUP1 RETURNDATACOPY RETURNDATASIZE PUSH1 0x0 REVERT JUMPDEST POP POP JUMP JUMPDEST PUSH1 0x0 DUP1 SLOAD SWAP1 PUSH2 0x100 EXP SWAP1 DIV PUSH20 0xFFFFFFFFFFFFFFFFFFFFFFFFFFFFFFFFFFFFFFFF AND DUP2 JUMP JUMPDEST PUSH1 0x0 PUSH1 0x1 PUSH1 0x0 DUP4 PUSH20 0xFFFFFFFFFFFFFFFFFFFFFFFFFFFFFFFFFFFFFFFF AND PUSH20 0xFFFFFFFFFFFFFFFFFFFFFFFFFFFFFFFFFFFFFFFF AND DUP2 MSTORE PUSH1 0x20 ADD SWAP1 DUP2 MSTORE PUSH1 0x20 ADD PUSH1 0x0 KECCAK256 SLOAD SWAP1 POP SWAP2 SWAP1 POP JUMP JUMPDEST PUSH1 0x0 PUSH20 0xFFFFFFFFFFFFFFFFFFFFFFFFFFFFFFFFFFFFFFFF AND DUP3 PUSH20 0xFFFFFFFFFFFFFFFFFFFFFFFFFFFFFFFFFFFFFFFF AND EQ ISZERO PUSH2 0x3AD JUMPI PUSH1 0x40 MLOAD PUSH32 0x8C379A000000000000000000000000000000000000000000000000000000000 DUP2 MSTORE PUSH1 0x4 ADD PUSH2 0x3A4 SWAP1 PUSH2 0x87D JUMP JUMPDEST PUSH1 0x40 MLOAD DUP1 SWAP2 SUB SWAP1 REVERT JUMPDEST DUP1 PUSH1 0x1 PUSH1 0x0 CALLER PUSH20 0xFFFFFFFFFFFFFFFFFFFFFFFFFFFFFFFFFFFFFFFF AND PUSH20 0xFFFFFFFFFFFFFFFFFFFFFFFFFFFFFFFFFFFFFFFF AND DUP2 MSTORE PUSH1 0x20 ADD SWAP1 DUP2 MSTORE PUSH1 0x20 ADD PUSH1 0x0 KECCAK256 SLOAD LT ISZERO PUSH2 0x42F JUMPI PUSH1 0x40 MLOAD PUSH32 0x8C379A000000000000000000000000000000000000000000000000000000000 DUP2 MSTORE PUSH1 0x4 ADD PUSH2 0x426 SWAP1 PUSH2 0x83D JUMP JUMPDEST PUSH1 0x40 MLOAD DUP1 SWAP2 SUB SWAP1 REVERT JUMPDEST DUP1 PUSH1 0x1 PUSH1 0x0 CALLER PUSH20 0xFFFFFFFFFFFFFFFFFFFFFFFFFFFFFFFFFFFFFFFF AND PUSH20 0xFFFFFFFFFFFFFFFFFFFFFFFFFFFFFFFFFFFFFFFF AND DUP2 MSTORE PUSH1 0x20 ADD SWAP1 DUP2 MSTORE PUSH1 0x20 ADD PUSH1 0x0 KECCAK256 PUSH1 0x0 DUP3 DUP3 SLOAD PUSH2 0x47E SWAP2 SWAP1 PUSH2 0x93F JUMP JUMPDEST SWAP3 POP POP DUP2 SWAP1 SSTORE POP DUP1 PUSH1 0x1 PUSH1 0x0 DUP5 PUSH20 0xFFFFFFFFFFFFFFFFFFFFFFFFFFFFFFFFFFFFFFFF AND PUSH20 0xFFFFFFFFFFFFFFFFFFFFFFFFFFFFFFFFFFFFFFFF AND DUP2 MSTORE PUSH1 0x20 ADD SWAP1 DUP2 MSTORE PUSH1 0x20 ADD PUSH1 0x0 KECCAK256 PUSH1 0x0 DUP3 DUP3 SLOAD PUSH2 0x4D4 SWAP2 SWAP1 PUSH2 0x8E9 JUMP JUMPDEST SWAP3 POP POP DUP2 SWAP1 SSTORE POP POP POP JUMP JUMPDEST PUSH1 0x0 CALLVALUE GT PUSH2 0x522 JUMPI PUSH1 0x40 MLOAD PUSH32 0x8C379A000000000000000000000000000000000000000000000000000000000 DUP2 MSTORE PUSH1 0x4 ADD PUSH2 0x519 SWAP1 PUSH2 0x81D JUMP JUMPDEST PUSH1 0x40 MLOAD DUP1 SWAP2 SUB SWAP1 REVERT JUMPDEST CALLVALUE PUSH1 0x1 PUSH1 0x0 CALLER PUSH20 0xFFFFFFFFFFFFFFFFFFFFFFFFFFFFFFFFFFFFFFFF AND PUSH20 0xFFFFFFFFFFFFFFFFFFFFFFFFFFFFFFFFFFFFFFFF AND DUP2 MSTORE PUSH1 0x20 ADD SWAP1 DUP2 MSTORE PUSH1 0x20 ADD PUSH1 0x0 KECCAK256 PUSH1 0x0 DUP3 DUP3 SLOAD PUSH2 0x571 SWAP2 SWAP1 PUSH2 0x8E9 JUMP JUMPDEST SWAP3 POP POP DUP2 SWAP1 SSTORE POP JUMP JUMPDEST PUSH1 0x0 DUP2 CALLDATALOAD SWAP1 POP PUSH2 0x589 DUP2 PUSH2 0x9F0 JUMP JUMPDEST SWAP3 SWAP2 POP POP JUMP JUMPDEST PUSH1 0x0 DUP2 CALLDATALOAD SWAP1 POP PUSH2 0x59E DUP2 PUSH2 0xA07 JUMP JUMPDEST SWAP3 SWAP2 POP POP JUMP JUMPDEST PUSH1 0x0 PUSH1 0x20 DUP3 DUP5 SUB SLT ISZERO PUSH2 0x5B6 JUMPI PUSH1 0x0 DUP1 REVERT JUMPDEST PUSH1 0x0 PUSH2 0x5C4 DUP5 DUP3 DUP6 ADD PUSH2 0x57A JUMP JUMPDEST SWAP2 POP POP SWAP3 SWAP2 POP POP JUMP JUMPDEST PUSH1 0x0 DUP1 PUSH1 0x40 DUP4 DUP6 SUB SLT ISZERO PUSH2 0x5E0 JUMPI PUSH1 0x0 DUP1 REVERT JUMPDEST PUSH1 0x0 PUSH2 0x5EE DUP6 DUP3 DUP7 ADD PUSH2 0x57A JUMP JUMPDEST SWAP3 POP POP PUSH1 0x20 PUSH2 0x5FF DUP6 DUP3 DUP7 ADD PUSH2 0x58F JUMP JUMPDEST SWAP2 POP POP SWAP3 POP SWAP3 SWAP1 POP JUMP JUMPDEST PUSH1 0x0 PUSH1 0x20 DUP3 DUP5 SUB SLT ISZERO PUSH2 0x61B JUMPI PUSH1 0x0 DUP1 REVERT JUMPDEST PUSH1 0x0 PUSH2 0x629 DUP5 DUP3 DUP6 ADD PUSH2 0x58F JUMP JUMPDEST SWAP2 POP POP SWAP3 SWAP2 POP POP JUMP JUMPDEST PUSH2 0x63B DUP2 PUSH2 0x985 JUMP JUMPDEST DUP3 MSTORE POP POP JUMP JUMPDEST PUSH1 0x0 PUSH2 0x64E PUSH1 0x25 DUP4 PUSH2 0x8D8 JUMP JUMPDEST SWAP2 POP PUSH32 0x4465706F73697420616D6F756E74206D75737420626520677265617465722074 PUSH1 0x0 DUP4 ADD MSTORE PUSH32 0x68616E2030000000000000000000000000000000000000000000000000000000 PUSH1 0x20 DUP4 ADD MSTORE PUSH1 0x40 DUP3 ADD SWAP1 POP SWAP2 SWAP1 POP JUMP JUMPDEST PUSH1 0x0 PUSH2 0x6B4 PUSH1 0x14 DUP4 PUSH2 0x8D8 JUMP JUMPDEST SWAP2 POP PUSH32 0x496E73756666696369656E742062616C616E6365000000000000000000000000 PUSH1 0x0 DUP4 ADD MSTORE PUSH1 0x20 DUP3 ADD SWAP1 POP SWAP2 SWAP1 POP JUMP JUMPDEST PUSH1 0x0 PUSH2 0x6F4 PUSH1 0x29 DUP4 PUSH2 0x8D8 JUMP JUMPDEST SWAP2 POP PUSH32 0x4F6E6C79206163636F756E74206F776E65722063616E2063616C6C2074686973 PUSH1 0x0 DUP4 ADD MSTORE PUSH32 0x2066756E6374696F6E0000000000000000000000000000000000000000000000 PUSH1 0x20 DUP4 ADD MSTORE PUSH1 0x40 DUP3 ADD SWAP1 POP SWAP2 SWAP1 POP JUMP JUMPDEST PUSH1 0x0 PUSH2 0x75A PUSH1 0x19 DUP4 PUSH2 0x8D8 JUMP JUMPDEST SWAP2 POP PUSH32 0x496E76616C696420726563697069656E74206164647265737300000000000000 PUSH1 0x0 DUP4 ADD MSTORE PUSH1 0x20 DUP3 ADD SWAP1 POP SWAP2 SWAP1 POP JUMP JUMPDEST PUSH1 0x0 PUSH2 0x79A PUSH1 0x24 DUP4 PUSH2 0x8D8 JUMP JUMPDEST SWAP2 POP PUSH32 0x496E73756666696369656E742062616C616E636520696E2074686520636F6E74 PUSH1 0x0 DUP4 ADD MSTORE PUSH32 0x7261637400000000000000000000000000000000000000000000000000000000 PUSH1 0x20 DUP4 ADD MSTORE PUSH1 0x40 DUP3 ADD SWAP1 POP SWAP2 SWAP1 POP JUMP JUMPDEST PUSH2 0x7FC DUP2 PUSH2 0x9B7 JUMP JUMPDEST DUP3 MSTORE POP POP JUMP JUMPDEST PUSH1 0x0 PUSH1 0x20 DUP3 ADD SWAP1 POP PUSH2 0x817 PUSH1 0x0 DUP4 ADD DUP5 PUSH2 0x632 JUMP JUMPDEST SWAP3 SWAP2 POP POP JUMP JUMPDEST PUSH1 0x0 PUSH1 0x20 DUP3 ADD SWAP1 POP DUP2 DUP2 SUB PUSH1 0x0 DUP4 ADD MSTORE PUSH2 0x836 DUP2 PUSH2 0x641 JUMP JUMPDEST SWAP1 POP SWAP2 SWAP1 POP JUMP JUMPDEST PUSH1 0x0 PUSH1 0x20 DUP3 ADD SWAP1 POP DUP2 DUP2 SUB PUSH1 0x0 DUP4 ADD MSTORE PUSH2 0x856 DUP2 PUSH2 0x6A7 JUMP JUMPDEST SWAP1 POP SWAP2 SWAP1 POP JUMP JUMPDEST PUSH1 0x0 PUSH1 0x20 DUP3 ADD SWAP1 POP DUP2 DUP2 SUB PUSH1 0x0 DUP4 ADD MSTORE PUSH2 0x876 DUP2 PUSH2 0x6E7 JUMP JUMPDEST SWAP1 POP SWAP2 SWAP1 POP JUMP JUMPDEST PUSH1 0x0 PUSH1 0x20 DUP3 ADD SWAP1 POP DUP2 DUP2 SUB PUSH1 0x0 DUP4 ADD MSTORE PUSH2 0x896 DUP2 PUSH2 0x74D JUMP JUMPDEST SWAP1 POP SWAP2 SWAP1 POP JUMP JUMPDEST PUSH1 0x0 PUSH1 0x20 DUP3 ADD SWAP1 POP DUP2 DUP2 SUB PUSH1 0x0 DUP4 ADD MSTORE PUSH2 0x8B6 DUP2 PUSH2 0x78D JUMP JUMPDEST SWAP1 POP SWAP2 SWAP1 POP JUMP JUMPDEST PUSH1 0x0 PUSH1 0x20 DUP3 ADD SWAP1 POP PUSH2 0x8D2 PUSH1 0x0 DUP4 ADD DUP5 PUSH2 0x7F3 JUMP JUMPDEST SWAP3 SWAP2 POP POP JUMP JUMPDEST PUSH1 0x0 DUP3 DUP3 MSTORE PUSH1 0x20 DUP3 ADD SWAP1 POP SWAP3 SWAP2 POP POP JUMP JUMPDEST PUSH1 0x0 PUSH2 0x8F4 DUP3 PUSH2 0x9B7 JUMP JUMPDEST SWAP2 POP PUSH2 0x8FF DUP4 PUSH2 0x9B7 JUMP JUMPDEST SWAP3 POP DUP3 PUSH32 0xFFFFFFFFFFFFFFFFFFFFFFFFFFFFFFFFFFFFFFFFFFFFFFFFFFFFFFFFFFFFFFFF SUB DUP3 GT ISZERO PUSH2 0x934 JUMPI PUSH2 0x933 PUSH2 0x9C1 JUMP JUMPDEST JUMPDEST DUP3 DUP3 ADD SWAP1 POP SWAP3 SWAP2 POP POP JUMP JUMPDEST PUSH1 0x0 PUSH2 0x94A DUP3 PUSH2 0x9B7 JUMP JUMPDEST SWAP2 POP PUSH2 0x955 DUP4 PUSH2 0x9B7 JUMP JUMPDEST SWAP3 POP DUP3 DUP3 LT ISZERO PUSH2 0x968 JUMPI PUSH2 0x967 PUSH2 0x9C1 JUMP JUMPDEST JUMPDEST DUP3 DUP3 SUB SWAP1 POP SWAP3 SWAP2 POP POP JUMP JUMPDEST PUSH1 0x0 PUSH2 0x97E DUP3 PUSH2 0x997 JUMP JUMPDEST SWAP1 POP SWAP2 SWAP1 POP JUMP JUMPDEST PUSH1 0x0 PUSH2 0x990 DUP3 PUSH2 0x997 JUMP JUMPDEST SWAP1 POP SWAP2 SWAP1 POP JUMP JUMPDEST PUSH1 0x0 PUSH20 0xFFFFFFFFFFFFFFFFFFFFFFFFFFFFFFFFFFFFFFFF DUP3 AND SWAP1 POP SWAP2 SWAP1 POP JUMP JUMPDEST PUSH1 0x0 DUP2 SWAP1 POP SWAP2 SWAP1 POP JUMP JUMPDEST PUSH32 0x4E487B7100000000000000000000000000000000000000000000000000000000 PUSH1 0x0 MSTORE PUSH1 0x11 PUSH1 0x4 MSTORE PUSH1 0x24 PUSH1 0x0 REVERT JUMPDEST PUSH2 0x9F9 DUP2 PUSH2 0x973 JUMP JUMPDEST DUP2 EQ PUSH2 0xA04 JUMPI PUSH1 0x0 DUP1 REVERT JUMPDEST POP JUMP JUMPDEST PUSH2 0xA10 DUP2 PUSH2 0x9B7 JUMP JUMPDEST DUP2 EQ PUSH2 0xA1B JUMPI PUSH1 0x0 DUP1 REVERT JUMPDEST POP JUMP INVALID LOG2 PUSH5 0x6970667358 0x22 SLT KECCAK256 DUP11 0xE3 DUP9 0xE1 CALLER DUP5 AND SWAP16 DUP3 0xB7 0x2C 0xD6 JUMPDEST RETURNDATASIZE SSTORE 0xAA LOG1 GT PUSH14 0x1A8B9DDA1B2FC1F4D8F64DF46964 PUSH20 0x6F6C634300080000330000000000000000000000 "
				},
				"gasEstimates": {
					"creation": {
						"codeDepositCost": "528800",
						"executionCost": "21428",
						"totalCost": "550228"
					},
					"external": {
						"accountOwner()": "1211",
						"balanceOf(address)": "1563",
						"deposit()": "infinite",
						"transfer(address,uint256)": "infinite",
						"withdraw(uint256)": "infinite"
					}
				},
				"methodIdentifiers": {
					"accountOwner()": "674ddb53",
					"balanceOf(address)": "70a08231",
					"deposit()": "d0e30db0",
					"transfer(address,uint256)": "a9059cbb",
					"withdraw(uint256)": "2e1a7d4d"
				}
			},
			"storageLayout": {
				"storage": [
					{
						"astId": 3,
						"contract": "cryptoWallet.sol:CryptoWallet",
						"label": "accountOwner",
						"offset": 0,
						"slot": "0",
						"type": "t_address_payable"
					},
					{
						"astId": 7,
						"contract": "cryptoWallet.sol:CryptoWallet",
						"label": "balances",
						"offset": 0,
						"slot": "1",
						"type": "t_mapping(t_address,t_uint256)"
					}
				],
				"types": {
					"t_address": {
						"encoding": "inplace",
						"label": "address",
						"numberOfBytes": "20"
					},
					"t_address_payable": {
						"encoding": "inplace",
						"label": "address payable",
						"numberOfBytes": "20"
					},
					"t_mapping(t_address,t_uint256)": {
						"encoding": "mapping",
						"key": "t_address",
						"label": "mapping(address => uint256)",
						"numberOfBytes": "32",
						"value": "t_uint256"
					},
					"t_uint256": {
						"encoding": "inplace",
						"label": "uint256",
						"numberOfBytes": "32"
					}
				}
			},
			"userdoc": {
				"kind": "user",
				"methods": {},
				"version": 1
			}
		}
	}
}